{
  "_format": "hh-sol-artifact-1",
  "contractName": "VerificationContract",
  "sourceName": "contracts/verificationContract.sol",
  "abi": [
    {
      "anonymous": false,
      "inputs": [
        {
          "indexed": true,
          "internalType": "address",
          "name": "verifier",
          "type": "address"
        },
        {
          "indexed": true,
          "internalType": "address",
          "name": "prover",
          "type": "address"
        },
        {
          "indexed": false,
          "internalType": "bool",
          "name": "status",
          "type": "bool"
        }
      ],
      "name": "DataStored",
      "type": "event"
    },
    {
      "inputs": [],
      "name": "getTotalVerifications",
      "outputs": [
        {
          "internalType": "uint256",
          "name": "",
          "type": "uint256"
        }
      ],
      "stateMutability": "view",
      "type": "function"
    },
    {
      "inputs": [
        {
          "internalType": "uint256",
          "name": "index",
          "type": "uint256"
        }
      ],
      "name": "getVerification",
      "outputs": [
        {
          "internalType": "address",
          "name": "",
          "type": "address"
        },
        {
          "internalType": "address",
          "name": "",
          "type": "address"
        },
        {
          "internalType": "bool",
          "name": "",
          "type": "bool"
        }
      ],
      "stateMutability": "view",
      "type": "function"
    },
    {
      "inputs": [
        {
          "internalType": "address",
          "name": "_prover",
          "type": "address"
        },
        {
          "internalType": "bool",
          "name": "_status",
          "type": "bool"
        }
      ],
      "name": "storeData",
      "outputs": [],
      "stateMutability": "nonpayable",
      "type": "function"
    },
    {
      "inputs": [
        {
          "internalType": "uint256",
          "name": "",
          "type": "uint256"
        }
      ],
      "name": "verifications",
      "outputs": [
        {
          "internalType": "address",
          "name": "verifier",
          "type": "address"
        },
        {
          "internalType": "address",
          "name": "prover",
          "type": "address"
        },
        {
          "internalType": "bool",
          "name": "status",
          "type": "bool"
        }
      ],
      "stateMutability": "view",
      "type": "function"
    }
  ],
  "bytecode": "0x608060405234801561001057600080fd5b50610728806100206000396000f3fe608060405234801561001057600080fd5b506004361061004c5760003560e01c806358937cc814610051578063b90b0a1014610083578063d172ba31146100b5578063f2df9017146100d1575b600080fd5b61006b600480360381019061006691906104a9565b6100ef565b60405161007a93929190610532565b60405180910390f35b61009d600480360381019061009891906104a9565b61024e565b6040516100ac93929190610532565b60405180910390f35b6100cf60048036038101906100ca91906105c1565b6102d5565b005b6100d9610462565b6040516100e69190610610565b60405180910390f35b60008060008080549050841061013a576040517f08c379a000000000000000000000000000000000000000000000000000000000815260040161013190610688565b60405180910390fd5b600080858154811061014f5761014e6106a8565b5b90600052602060002090600202016040518060600160405290816000820160009054906101000a900473ffffffffffffffffffffffffffffffffffffffff1673ffffffffffffffffffffffffffffffffffffffff1673ffffffffffffffffffffffffffffffffffffffff1681526020016001820160009054906101000a900473ffffffffffffffffffffffffffffffffffffffff1673ffffffffffffffffffffffffffffffffffffffff1673ffffffffffffffffffffffffffffffffffffffff1681526020016001820160149054906101000a900460ff1615151515815250509050806000015181602001518260400151935093509350509193909250565b6000818154811061025e57600080fd5b90600052602060002090600202016000915090508060000160009054906101000a900473ffffffffffffffffffffffffffffffffffffffff16908060010160009054906101000a900473ffffffffffffffffffffffffffffffffffffffff16908060010160149054906101000a900460ff16905083565b600060405180606001604052803373ffffffffffffffffffffffffffffffffffffffff1681526020018473ffffffffffffffffffffffffffffffffffffffff168152602001831515815250908060018154018082558091505060019003906000526020600020906002020160009091909190915060008201518160000160006101000a81548173ffffffffffffffffffffffffffffffffffffffff021916908373ffffffffffffffffffffffffffffffffffffffff16021790555060208201518160010160006101000a81548173ffffffffffffffffffffffffffffffffffffffff021916908373ffffffffffffffffffffffffffffffffffffffff16021790555060408201518160010160146101000a81548160ff02191690831515021790555050508173ffffffffffffffffffffffffffffffffffffffff163373ffffffffffffffffffffffffffffffffffffffff167f5dbe8b46e8e1f1dcc554bcdd7ce490b261a2207b996e9230a7ef5defc3e1cc5b8360405161045691906106d7565b60405180910390a35050565b60008080549050905090565b600080fd5b6000819050919050565b61048681610473565b811461049157600080fd5b50565b6000813590506104a38161047d565b92915050565b6000602082840312156104bf576104be61046e565b5b60006104cd84828501610494565b91505092915050565b600073ffffffffffffffffffffffffffffffffffffffff82169050919050565b6000610501826104d6565b9050919050565b610511816104f6565b82525050565b60008115159050919050565b61052c81610517565b82525050565b60006060820190506105476000830186610508565b6105546020830185610508565b6105616040830184610523565b949350505050565b610572816104f6565b811461057d57600080fd5b50565b60008135905061058f81610569565b92915050565b61059e81610517565b81146105a957600080fd5b50565b6000813590506105bb81610595565b92915050565b600080604083850312156105d8576105d761046e565b5b60006105e685828601610580565b92505060206105f7858286016105ac565b9150509250929050565b61060a81610473565b82525050565b60006020820190506106256000830184610601565b92915050565b600082825260208201905092915050565b7f496e76616c696420696e64657800000000000000000000000000000000000000600082015250565b6000610672600d8361062b565b915061067d8261063c565b602082019050919050565b600060208201905081810360008301526106a181610665565b9050919050565b7f4e487b7100000000000000000000000000000000000000000000000000000000600052603260045260246000fd5b60006020820190506106ec6000830184610523565b9291505056fea2646970667358221220a6944e073880bf5011de0683e92c0c21b6d248343a4b01a415540e159c8849b764736f6c63430008140033",
  "linkReferences": {},
  "deployedLinkReferences": {}
}